:020000040800F2
:1000000000050020A101000897120008A30F0008B6
:1000100005120008F9020008891500080000000018
:100020000000000000000000000000009B1200081B
:10003000FB020008000000009912000849130008A4
:10004000BB010008BB010008BB010008BB010008A0
:10005000BB010008BB010008BB010008BB01000890
:10006000BB010008BB010008BB010008BB01000880
:10007000BB010008BB010008BB010008BB01000870
:10008000BB010008BB010008BB010008BB01000860
:10009000BB010008BB010008BB010008BB01000850
:1000A000BB010008BB010008BB010008BB01000840
:1000B000BB010008BB010008BB010008BB01000830
:1000C000BB010008BB010008BB010008BB01000820
:1000D000BB010008BB010008BB010008BB01000810
:1000E000BB010008BB010008BB010008BB01000800
:1000F000BB010008BB010008BB010008BB010008F0
:10010000BB010008BB010008BB010008BB010008DF
:10011000BB010008BB010008BB010008BB010008CF
:10012000BB010008BB010008BB010008BB010008BF
:10013000BB010008BB010008BB010008BB010008AF
:10014000BB010008BB010008BB010008BB0100089F
:10015000BB010008BB010008BB010008BB0100088F
:10016000BB010008BB010008BB010008BB0100087F
:10017000BB010008BB010008BB0100080000000033
:10018000BB010008BB010008DFF810D000F08EF8BA
:1001900000480047D51B0008AFF300800005002091
:1001A0000648804706480047FEE7FEE7FEE7FEE711
:1001B000FEE7FEE7FEE7FEE7FEE7FEE7E1130008E5
:1001C000890100082DE9F05F0546002092469B4614
:1001D00088460646814640241BE02846414647465D
:1001E000224600F053F853465A46C01A914110D3A4
:1001F00011461846224600F03AF82D1A67EB01081E
:100200004F4622460120002100F031F817EB00098B
:100210004E41201EA4F10104DFDC484631462A4647
:100220004346BDE8F09F40EA01039B0703D009E085
:1002300008C9121F08C0042AFAD203E011F8013BD2
:1002400000F8013B521EF9D27047D2B201E000F82B
:10025000012B491EFBD270470022F6E710B513466A
:100260000A4604461946FFF7F0FF204610BD202A33
:1002700004DB203A00FA02F1002070479140C2F1FD
:10028000200320FA03F3194390407047202A04DB2F
:10029000203A21FA02F00021704721FA02F3D040FF
:1002A000C2F120029140084319467047064C074DA1
:1002B00006E0E06840F0010394E807009847103436
:1002C000AC42F6D3FFF764FFD81E0008F81E000802
:1002D000F0B50024002301EB840503EB800702EB5B
:1002E0008707EE5C3F5D7E40EE545B1C042BF4DB25
:1002F000641C042CEEDBF0BDFEE7704772B6FEE72F
:100300002DE9F84F00224FF0010803254FF00F0EA2
:100310000B6808FA02F42340A3426ED14E68012E06
:1003200005D0022E03D0112E01D0122E12D18668D4
:100330004FEA420C05FA0CF7BE43CF6807FA0CF7F8
:10034000374387604668A6430C79C4F30014944091
:1003500034434460C668570005FA07FC8C6826EAF7
:100360000C06BC403443C4604C68022C01D0122CF3
:1003700013D1D40800EB8404A346D4F8209054078A
:100380004FEAD46A0EFA0AF629EA06090E6906FA55
:100390000AF646EA0906CBF8206006680C7926EAD8
:1003A0000C0604F00304BC40344304604C68E400D1
:1003B00065D5364C266846F480462660246822F0CF
:1003C000030604F480440094314C3444A446D4F829
:1003D00008489607370F0EFA07F6B4432D4EB04281
:1003E00001D1002624E02C4EB04201D101261FE0AD
:1003F0002A4EB04202D102261AE040E0284EB04216
:1004000001D1032614E0274EB04201D104260FE0AB
:10041000254EB04201D105260AE0244EB04201D15A
:10042000062605E0224EB04201D1072600E008264C
:10043000BE402643CCF808681E4E34684F689C4383
:10044000FF0300D51C4334601A4C241D26684F68F6
:100450009E43BF0300D51E432660164E08363468FF
:100460004F689C43FF0200D51C433460114E0C368C
:1004700034684F689C43BF0200D51C433460521C53
:10048000102AFFF445AFBDE8F88F00004438024061
:100490000030014000000240000402400008024019
:1004A000000C0240001002400014024000180240FC
:1004B000001C0240003C01400AB181617047090400
:1004C000FBE7000001488068704700000000002042
:1004D00070B5040025D094F83D00002520B984F8BB
:1004E0003C50204600F0B8F8242084F83D002068F5
:1004F000016821F0010101602068016841F40041B8
:1005000001602068016821F40041016000F0FEF9FB
:100510004D4A6168914201D84C4900E04C498842FB
:1005200001D2012070BD4B492368B0FBF1F15E6838
:1005300026F03F060E435E606368934206D94FF48F
:10054000967359434FF47A73B1FBF3F12368491C56
:100550001E6A26F03F06314319626168914210D845
:100560004900401EB0FBF1F2521CC2F30B02042AF8
:1005700001D2042022E0B0FBF1F0401CC0F30B00DC
:100580001CE0A268F2B301EBC10303EB0116431EAA
:10059000B3FBF6F35B1C43F480431B0549D092B3D5
:1005A00001EBC10202EB0111401EB0FBF1F0401C57
:1005B000C0F30B0040F4804040F400402168CA6959
:1005C0004CF6FF739A431043C861D4E90710014306
:1005D0002068026822F0C00211430160D4E90301DF
:1005E00001432068826848F2FF339A4311438160D7
:1005F000D4E9050108432168CA6822F0FF021043CC
:10060000C86001E00EE016E02068016841F00101D9
:1006100001602564202084F83D00256384F83E5065
:10062000002070BD01EB4106431EB3FBF6F35B1CDB
:10063000B3E70120C2E701EB4101401EB0FBF1F03E
:10064000401CC0F30B00B7E7A086010080841E00A9
:1006500000093D0040420F0010B586B00446142149
:100660006846FFF7F9FD13492068884220D11248F7
:10067000016841F0020101600068694600F0020073
:100680000590C020009012200190012002900320CC
:100690000390042004900948FFF732FE064810300A
:1006A000016841F400110160006800F40010059039
:1006B00006B010BD00540040303802400004024033
:1006C0000248816802781144816070470000002070
:1006D0000B4810B5016841F400710160016841F4F4
:1006E00080610160016841F480710160032000F0C5
:1006F00061F8002000F006F800F024F8002010BD9A
:10070000003C024070B50D4D04464FF47A712878D4
:10071000B1FBF0F00A490968B1FBF0F000F068FBAA
:1007200048B9102C07D200222146501E00F022F8B2
:1007300000206C6070BD012070BD00000000002032
:100740000C0000200A4808B5016841F480410160AE
:10075000006800F4804000900548001F016841F0E7
:1007600080510160006800F08050009008BD0000DA
:1007700044380240F0B40E4B1B680C46C3F302230E
:10078000C3F10705042D00D90425191D072901D23D
:10079000002300E0DB1E012606FA05F1491E214078
:1007A00099409E40761E16403143F0BC00F0FEBEDC
:1007B0000CED00E0064900F0070208684FF6FF0361
:1007C000184040EA0220034A1043086070470000C6
:1007D0000CED00E00000FA052DE9F0470E4605009B
:1007E00065D0DFF81481D8F80000F7B200F00F00F0
:1007F000B04207D288F80070D8F8000000F00F006F
:10080000B04254D128683D4C810712D5400703D52A
:10081000206840F4E05020602878000703D5206865
:1008200040F4604020602068A96820F0F000084390
:1008300020602878C0072DD0304968680839012821
:1008400012D0022813D0032811D009688907002983
:100850002DDA216821F0030101432160FFF732FE08
:10086000814641F2883A0EE009688903EFE709689A
:100870008901ECE7FFF726FEA0EB0901514502D9FB
:100880000320BDE8F0872068696800F00C00B0EB39
:10089000810FEFD1D8F80010404601F00F01B142AE
:1008A00007D90770006800F00F00B04201D00120A6
:1008B000E7E72878400705D52068E96820F4E0508C
:1008C000084320602878000706D52068296920F4AD
:1008D000604040EAC100206000F038F82168084A12
:1008E000C1F30311515CC84006490860064800681E
:1008F000FFF708FF0020C4E7003C02400838024030
:10090000C01E00080C000020040000200448054917
:1009100000680968044AC1F38221515CC8407047ED
:100920000C00002008380240D01E00080448054989
:1009300000680968044AC1F34231515CC8407047FD
:100940000C00002008380240D01E0008154810B5E1
:10095000006810F00C02144813D04110042A0FD084
:10096000082A0ED10F4C241F2268236802F03F0290
:100970005B0207D52068C0F38810A0FB010106E0E8
:10098000084610BD2168C1F38811A1FB00010023B6
:10099000FFF718FC2168C1F30141491C4900B0FB75
:1009A000F1F010BD083802400024F4002DE9F84FA2
:1009B00004006ED02078DFF83C93C007A9F104054D
:1009C0004AD009F104000168C1F38101012908D06E
:1009D0000068C0F3810002280AD1D9F80000400263
:1009E00006D52868800337D560680028E1D033E059
:1009F0006068B0F5803F10D0B0F5A02F286810D007
:100A000020F480302860286820F480202860606806
:100A1000A8B1FFF757FD06460DE0286840F4803086
:100A2000F4E740F480202860F7E700BFFFF74AFDB5
:100A3000801B642873D828688003F7D50CE0FFF783
:100A400041FD064605E000BFFFF73CFD801B642822
:100A5000F0D828688003F7D42078DFF89C828007DC
:100A60004FF0000A3ED5A348001D016811F00C0F9D
:100A700008D00068C0F3810002280BD1D9F800002B
:100A8000400207D42868800716D5E068012800D105
:100A900012E02BE1E068B8B10120C8F80000FFF7D0
:100AA00011FD064605E000BFFFF70CFD801B022884
:100AB000C0D828688007F7D52868216920F0F80099
:100AC00040EAC10028600DE0C8F800A0FFF7FAFC7A
:100AD000064604E0FFF7F6FC801B02281FD82868B2
:100AE0008007F7D42078000722D5824E83486169B9
:100AF000703671B101210160FFF7E4FC074604E0A4
:100B0000FFF7E0FCC01B022809D830688007F7D542
:100B10000EE0C0F800A0FFF7D5FC074605E082E034
:100B2000FFF7D0FCC01B02287DD830688007F7D4BF
:100B30002078400768D5DFF8BCB100270BF13C0BEB
:100B4000DBF80000C0000BD4DBF8001041F080514E
:100B5000CBF80010DBF80000012700F08050009077
:100B6000674E3068C00510D4306840F48070306043
:100B7000FFF7A8FC009005E0FFF7A4FC0099401ADD
:100B8000022850D83068C005F6D55A4EA0686C3699
:100B900001280FD00528306810D020F00100306007
:100BA000306820F004003060A068B8B1FFF78AFC1C
:100BB00000900FE0306840F00100F4E740F00400DE
:100BC0003060F7E7FFF77EFC0099411A41F2883068
:100BD000814266D830688007F4D50EE0FFF772FCDA
:100BE000009007E0FFF76EFC0099411A41F288304F
:100BF000814256D830688007F4D42FB1DBF800105A
:100C000021F08051CBF80010A069C8B33949091D03
:100C10000968C1F3810102294AD00228504607D051
:100C2000C8F8600000E03CE0FFF74CFC04463BE005
:100C30004746C8F86000FFF745FC064605E000BFE0
:100C4000FFF740FC801B02282BD828688001F7D4CE
:100C5000D4E907010843A16A2A4A490802EB014185
:100C6000626A41EA8211084394F82C1040EA01615B
:100C7000C9F8001001203866FFF724FC044606E09E
:100C800036E000BFFFF71EFC001B022809D82868C9
:100C90008001F7D52CE000BFFFF714FC001B0228F1
:100CA00002D90320BDE8F88F28688001F4D41FE042
:100CB0000128F7D0D9F80000E26900F480019142E0
:100CC00014D1226A00F03F0191420FD147F6C07162
:100CD000626A0140914209D1A26A00F44031914216
:100CE00004D1E16A00F07060884201D00120D9E7A8
:100CF0000020D7E70438024000004742800E4742F8
:100D0000007000400000FFFF70B5040005D0002512
:100D1000A56294F8510010B106E0012070BD84F87E
:100D20005050204600F030F8022084F8510020682E
:100D3000016821F040010160D4E901010843D4E9D0
:100D400003121143084361690843218B01F40071C8
:100D50000843E1690843216A0843A16A08432168FE
:100D60000860A069042101EA1040616A0843216813
:100D700048602068C16921F40061C1616565012096
:100D800084F85100002070BD10B586B004461421CF
:100D90006846FFF761FA13492068884220D112485B
:100DA0000021026842F480520260006800F4805022
:100DB00005900D481438026842F001020260006894
:100DC00000F001000590E02000900220CDE9010133
:100DD000032003900520049069460448FFF790FA29
:100DE00006B010BD0030014044380240000002400F
:100DF00010B5401EB0F1807F01D3012010BD4FF02F
:100E0000E02460610F21601700F0D0FB0020A0619A
:100E100007202061002010BD70B5040004D094F8B4
:100E20003900002510B106E0012070BD84F838506B
:100E3000204600F023F8242084F839002068C16897
:100E400021F40051C160204600F0D8FA2068016901
:100E500021F4904101612068416921F02A0141613A
:100E60002068C16841F40051C160E563202084F826
:100E7000390084F83A00002070BD000010B586B03B
:100E8000044614216846FFF7E7F9144920688842B0
:100E900021D113480021026842F01002026000686C
:100EA00000F0100005900E481438026842F001026C
:100EB0000260006800F0010005904FF4C0600090EF
:100EC0000220CDE901010320039007200490694628
:100ED0000448FFF715FA06B010BD000000100140ED
:100EE00044380240000002402DE9F843044690F8DF
:100EF00039001F4616460D46202850D1B5B1AEB177
:100F000094F8380001284AD0012084F838004FF0C6
:100F10000008C4F83C80212084F83900FFF7D2FA99
:100F2000A6848146E68484F8388026E00120BDE866
:100F3000F883E08C401EE084A0684B46B0F5805FEB
:100F40004FF000024FF080012046009703D000F0E0
:100F5000E9FAE8B90DE000F0E5FAC8B92888216897
:100F6000C0F308004860206908B16D1C05E0AD1CA5
:100F700003E0216815F8010B4860E08C0028D8D107
:100F80004B46002240212046009700F0CBFA08B1E2
:100F90000320CCE7202084F839000020C7E7022096
:100FA000C5E7FEE72DE9FF47814601461022684666
:100FB000FFF739F900256E46705D00F0F7FD7419F2
:100FC0000746207900F0D1FD4740207A00F0DCFD93
:100FD0004740207B00F0BFFD474009F80570705D79
:100FE00000F0B9FD0746207900F0E0FD4740207A87
:100FF00000F0BBFD4740207B00F0C6FD09EB050873
:10100000474088F80470705D00F0BEFD0746207907
:1010100000F0A1FD4740207A00F0C8FD4740207B4A
:1010200000F0A3FD474088F80870705D00F09DFD5A
:101030000746207900F0A8FD4740207A00F08BFD9C
:101040004740207B00F0B2FD47406D1C88F80C70D3
:10105000042DB1DBBDE8FF872DE9FF4104460146C1
:1010600010226846FFF7DFF801226D46002305EBEA
:10107000820104EB82009F18CE5C07F003075B1C23
:10108000C655042BF7DB521C042AEFDBBDE8FF81B9
:1010900070B50A4D0022002100EB82035C5C24F055
:1010A0000F062E4404F00F04345D5C54491C0429DF
:1010B000F4DB521C042AEEDB70BD0000941D000816
:1010C00030B587B014216846FFF7C6F81A480024E7
:1010D000016841F080010160016801F08001059123
:1010E000016841F001010160016801F00101059111
:1010F000016841F0020101600068104D00F002003B
:101100000590002208212846FFF7D6F90820009014
:101110000120CDE90104694628460394FFF7F0F861
:10112000102000900648CDE9010469462846FFF7E3
:10113000E7F807B030BD0000303802400000024040
:10114000000011100D4810B50B4901600C494160B9
:1011500000214FF480428160C0E903124161816146
:10116000C1610162FFF7B4F9002803D0BDE8104067
:10117000FFF7C4B810BD0000005400401400002068
:10118000A0860100104810B50E4901604FF482712D
:10119000416000218160C1604FF400720161C0E9CB
:1011A00005121822C0E90721416281620A21C16249
:1011B000FFF7AAFD002803D0BDE81040FFF79EB856
:1011C00010BD000000300140680000200C4810B540
:1011D0000A4901604FF4E1314160002181600C2235
:1011E000C160C0E904128161C161FFF715FE0028EA
:1011F00003D0BDE81040FFF781B810BD00100140DA
:10120000C0000020FEE72DE9FF478146014610227D
:101210006846FFF708F800256E46705D00F08CFC0C
:1012200074190746207900F090FC4740207A474027
:10123000207B474009F80570775D207900F07CFC41
:101240004740207A00F081FC4740207B09EB0508ED
:10125000474088F80470775D20794740207A00F095
:101260006BFC4740207B00F070FC474088F808701A
:10127000705D00F06AFC217980EA0107207A47401E
:10128000207B00F059FC47406D1C88F80C70042D41
:10129000C3DBBDE8FF87FEE7704770477FB50446B4
:1012A000014610226846FEF7BEFF01226D4600236C
:1012B00005EB820104EB82009E1806F003068E5DAA
:1012C000C6545B1C042BF7DB521C042AEFDB7FBDEA
:1012D00070B50A4D0022002100EB82035C5C24F013
:1012E0000F062E4404F00F04345D5C54491C04299D
:1012F000F4DB521C042AEEDB70BD0000941C0008D5
:101300000278104922F00F030B4402F00F029A5C9E
:101310000270427822F00F030B4402F00F029A5C35
:101320004270827822F00F030B4402F00F029A5CA5
:101330008270C27822F00F03194402F00F02895C18
:10134000C1707047941C0008FFF7BAB930B593B06C
:1013500030216846FEF780FF14210CA8FEF77CFFC1
:101360001D480025016841F080510160006800F0CF
:10137000805011901948016841F480410160006873
:10138000022400F48040119001200090000401909C
:101390008001CDE9064008AA0420A82182E81300B4
:1013A0000B906846FFF702FB08B172B6FEE70CA986
:1013B0000F2081E831004FF4A0500F904FF480507F
:1013C000109005210CA8FFF707FA002801D072B68B
:1013D000FEE713B030BD000040380240007000400E
:1013E0000548016841F47001016003494FF0006055
:1013F000803908607047000088ED00E02DE9F04179
:10140000044600680169E26821F44051114301611A
:101410002169A068E26908436169114308432168B2
:10142000CA6849F20C639A430243CA602068416962
:10143000A26921F4407111434161E06919276425D3
:101440003226B0F5004F354A354920684FF0000884
:1014500006D0884201D0904236D1FFF767FA35E0D6
:10146000884201D0904202D1FFF760FA01E0FFF715
:101470004DFA61684A18A0FB070148EB0803FEF724
:10148000A1FE0146B0FBF5F00201B1FBF5F06FF0F3
:101490001803584301EB800006EBC000B0FBF5F0E9
:1014A00000F0F80002EB4002B1FBF5F0584301EB0D
:1014B000800006EBC000B0FBF5F000F007002168EB
:1014C00010448860BDE8F081FFF720FA61688B0F57
:1014D0008A00A0FB0701FEF775FE0146B0FBF5F0A0
:1014E0006FF01802504301EB800006EB0010B0FBD8
:1014F000F5F000F0F002B1FBF5F002EB0012B1FBE9
:10150000F5F06FF01803584301EB800006EB001074
:10151000B0FBF5F000F00F00D1E70000001401402F
:10152000001001402DE9F041984617460E4604464A
:10153000069D1DE0681C1BD02DB1FEF7C3FFA0EB7C
:101540000800A84214D92068C16821F4D071C16094
:101550002068416921F001014161202084F83900AF
:1015600084F83A00002084F838000320BDE8F081B8
:101570002068006836EA000004D00020B842D9D0C4
:101580000020F3E70120F9E7FEE700000FB4054B68
:1015900010B503A9044A029800F028F810BC5DF8C1
:1015A00014FB00001D1B0008100000200907090E95
:1015B000002804DB00F1E02080F80014704700F000
:1015C0000F0000F1E02080F8141D704702E008C809
:1015D000121F08C1002AFAD170477047002001E0AD
:1015E00001C1121F002AFBD1704700002DE9FF4FF7
:1015F0008DB09B460F460446002606E025280BD0FA
:101600005A460F999047641C761C20780028F5D123
:1016100011B03046BDE8F08F0025A8460122984958
:1016200000E0054314F8013F203B02FA03F00842B2
:10163000F7D120782E2817D114F8010F45F00405B2
:101640002A280ED06FF02F022078A0F1300109294E
:101650000AD808EB880102EB410100EB0108641C89
:10166000F2E757F8048B641C20786C280DD004DC5A
:101670004C2812D06A2811D104E074280DD07A28A1
:101680000CD10AE045F4001507E0617845F48015B7
:10169000814202D1641C05F58015641C20786928FC
:1016A00044D008DC0028B3D0582867D063280FD076
:1016B000642808D13AE0702865D0732812D07528C4
:1016C0005AD078285AD05A460F999047761CD5E0C0
:1016D00017F8040B8DF8000000208DF80100E94692
:1016E000012003E057F8049B4FF0FF3069074FF0EB
:1016F000000501D40AE06D1C45450DDA8542FADB90
:1017000019F805100029F6D106E06D1C8542FCDBB6
:1017100019F805100029F8D12E4404E019F8010B3E
:101720005A460F9990476D1EF8D2A7E00A20002173
:10173000CDE90801C5F3025002280CD001CFC11732
:10174000021E71F100020CDA0023D0EB030063EB00
:1017500001012D2208E0FF1D27F00707F7E802012D
:10176000EEE72A0504D52B228DF8282001223CE043
:10177000EA073AD02022F7E70A2000E010200021F3
:10178000CDE9080107E01020002145F00405CDE96E
:1017900008014FF00808C5F30250022810D001CF0D
:1017A00000214FF0000A2A0720D52278702A0DD098
:1017B000DDE908C38CF0100C5CEA030C0CD015E0DA
:1017C000FF1D27F00707F7E80201EAE740228DF83E
:1017D00028204FF0010A0CE050EA010306D0302324
:1017E0008DF828308DF82920022292462278582A36
:1017F00004D024A20DF120090B9209E026A2F9E7FA
:10180000DDE90823FEF7DEFC0B9B9B5C09F8013D3C
:1018100050EA0102F4D1ADEB0900203008906807CE
:1018200001D44FF001080899884503DD0898A8EB1A
:10183000000000E000208046002506E00AA85A4685
:10184000405D0F9990476D1C761C5545F6DB04E012
:1018500030205A460F999047761CB8F10001A8F144
:101860000108F5DC05E019F8010B5A460F9990477D
:10187000761C0899481E08900029F4DC641CC4E614
:101880000928010030313233343536373839616256
:10189000636465660000000030313233343536371A
:1018A0003839414243444546000000002DE9FF41DC
:1018B00004460068164600284FF000003CDD6D46E7
:1018C00000F0030305EB83030A5C03EBA003401C59
:1018D0001A701028F4DB04F10802904629462068AB
:1018E000FEF7F6FC27680CE0FFF7B6FB6846FFF74B
:1018F000CFFB424669463846FEF7EAFC6846FFF7EA
:1019000051FB7F1E012F6846EEDAFFF7A5FB684604
:10191000FFF7BEFB424669460020FEF7D9FC0020D7
:1019200000F0030105EB810101EBA00109783154BE
:10193000401C1028F4DB606804B0BDE8F0812DE99C
:10194000FF4104460068164600284FF000003EDDC7
:101950006D4600F0030305EB83030A5C03EBA00371
:10196000401C1A701028F4DB04F108029046294646
:101970000020FEF7ADFC01270DE0FFF7A9FC68464B
:10198000FFF78CFC6846FFF73EFC42466946384646
:10199000FEF79EFC7F1C2068401EB8426846ECDAC9
:1019A000FFF796FC6846FFF779FC424669462068D7
:1019B000FEF78EFC002000F0030105EB810101EB36
:1019C000A00109783154401C1028F4DB606804B091
:1019D000BDE8F081F8B50446802A10D006DC102A54
:1019E0000DD0182A10D0202A05D112E0C02A0BD021
:1019F000B2F5807F0DD0002020606060F8BD0A2025
:101A000004252060102008E00C2006252060182006
:101A100003E00E2008252060202060605FF00000B9
:101A200004EB800211F82030137201EB8003401C9C
:101A30005E7856729E789672DB78D372A842EFDB9E
:101A40002E4661E004EB860796FBF5FC38798DF8AD
:101A5000000079798DF80110BA798DF8022005FB24
:101A60001C6CFB798DF80330BCF1000F08D0062DFB
:101A700032DD96FBF5F005FB1060042829D02BE041
:101A80008DF800108DF801208DF802308DF80300DC
:101A90006846FFF735FC2049701B9DF8002011F8BF
:101AA000203001EB80005A408DF800209DF8012085
:101AB00041784A408DF801209DF80210827851400B
:101AC0008DF802109DF80310C07841408DF8031086
:101AD00002E06846FFF714FC701B04EB80009DF8E1
:101AE0000020017A51403972417A9DF8012051401D
:101AF0007972817A9DF802205140B972C07A9DF8BE
:101B000003104840F872761C20688000001DB04227
:101B100098DC0120F8BD0000941E000808B50223DF
:101B20008DF80000012269460248FFF7DDF9002028
:101B300008BD0000C0000020802801D2400002E063
:101B40001B2181EA4000C0B2704710B50446FFF780
:101B5000F3FF604010BD10B50446FFF7EDFFFFF73F
:101B6000EBFFFFF7E9FF604010BD70B50446FFF7DB
:101B7000E3FFFFF7E1FFFFF7DFFF05462046FFF732
:101B8000DBFF6840604070BD70B50546FFF7D4FFCD
:101B9000FFF7D2FFFFF7D0FF04462846FFF7CCFF40
:101BA000FFF7CAFF444084EA050070BD70B50546E2
:101BB000FFF7C2FFFFF7C0FFFFF7BEFF044628464E
:101BC000FFF7BAFFFFF7B8FF44402846FFF7B4FF1E
:101BD000604070BDCEB0FEF77BFDFFF7B7FBFFF7AF
:101BE0006FFAFFF7CFFAFFF7F1FAFFF7ABFA1EA291
:101BF0000DF58C7C0FCA8CE80F001FA30DF5947CAB
:101C00000FCB8CE80F00102246A96846FFF7E2FED2
:101C1000002043904490459042903E903F904090E9
:101C200041903EAA4AA96846FFF789FE00243EADCE
:101C300015A0295DFFF7AAFC641C102CF8DB13A08B
:101C4000FFF7A4FC42AA3EA96846FFF72FFE002436
:101C500042AD0FA0295DFFF799FC641C102CF8DB46
:101C60000AA0FFF793FCFEE7040502050001010945
:101C700009070003020207046F6E656461796967F2
:101C80006F746F7363686F00255800000A000000CE
:101C900025630000637C777BF26B6FC53001672B97
:101CA000FED7AB76CA82C97DFA5947F0ADD4A2AF50
:101CB0009CA472C0B7FD9326363FF7CC34A5E5F15E
:101CC00071D8311504C723C31896059A071280E20C
:101CD000EB27B27509832C1A1B6E5AA0523BD6B360
:101CE00029E32F8453D100ED20FCB15B6ACBBE39D0
:101CF0004A4C58CFD0EFAAFB434D338545F9027FBC
:101D0000503C9FA851A3408F929D38F5BCB6DA2174
:101D100010FFF3D2CD0C13EC5F974417C4A77E3DA0
:101D2000645D197360814FDC222A908846EEB814F6
:101D3000DE5E0BDBE0323A0A4906245CC2D3AC62B9
:101D40009195E479E7C8376D8DD54EA96C56F4EAC4
:101D5000657AAE08BA78252E1CA6B4C6E8DD741FD5
:101D60004BBD8B8A703EB5664803F60E613557B998
:101D700086C11D9EE1F8981169D98E949B1E87E952
:101D8000CE5528DF8CA1890DBFE6426841992D0F01
:101D9000B054BB1652096AD53036A538BF40A39E51
:101DA00081F3D7FB7CE339829B2FFF87348E43443A
:101DB000C4DEE9CB547B9432A6C2233DEE4C950B96
:101DC00042FAC34E082EA16628D924B2765BA249F6
:101DD0006D8BD12572F8F66486689816D4A45CCC15
:101DE0005D65B6926C704850FDEDB9DA5E154657E8
:101DF000A78D9D8490D8AB008CBCD30AF7E458051E
:101E0000B8B34506D02C1E8FCA3F0F02C1AFBD0329
:101E100001138A6B3A9111414F67DCEA97F2CFCEFA
:101E2000F0B4E67396AC7422E7AD3585E2F937E895
:101E30001C75DF6E47F11A711D29C5896FB7620ED7
:101E4000AA18BE1BFC563E4BC6D279209ADBC0FEB8
:101E500078CD5AF41FDDA8338807C731B112105965
:101E60002780EC5F60517FA919B54A0D2DE57A9F57
:101E700093C99CEFA0E03B4DAE2AF5B0C8EBBB3C4C
:101E800083539961172B047EBA77D626E1691463D0
:101E900055210C7D00000000010000000200000040
:101EA00004000000080000001000000020000000F6
:101EB00040000000800000001B0000003600000011
:101EC00000000000000000000102030406070809EA
:101ED0000000000001020304F81E000800000020BA
:101EE00014000000CC1500080C1F0008140000208E
:101EF000EC040000DC1500080100000010000000E8
:0C1F0000000000000024F40000000000BD
:040000050800018965
:00000001FF
